{
  "contractName": "Si3mShadyCoin",
  "abi": [
    {
      "inputs": [],
      "payable": false,
      "stateMutability": "nonpayable",
      "type": "constructor"
    },
    {
      "constant": true,
      "inputs": [
        {
          "internalType": "address",
          "name": "",
          "type": "address"
        }
      ],
      "name": "balanceOf",
      "outputs": [
        {
          "internalType": "uint256",
          "name": "",
          "type": "uint256"
        }
      ],
      "payable": false,
      "stateMutability": "view",
      "type": "function"
    },
    {
      "constant": false,
      "inputs": [],
      "name": "getBalance",
      "outputs": [
        {
          "internalType": "uint256",
          "name": "",
          "type": "uint256"
        }
      ],
      "payable": false,
      "stateMutability": "nonpayable",
      "type": "function"
    }
  ],
  "bytecode": "0x608060405234801561001057600080fd5b506103786000803373ffffffffffffffffffffffffffffffffffffffff1673ffffffffffffffffffffffffffffffffffffffff1681526020019081526020016000208190555060007f5353430000000000000000000000000000000000000000000000000000000000905060007f5369334d5348414459000000000000000000000000000000000000000000000090505050610144806100b16000396000f3fe608060405234801561001057600080fd5b50600436106100365760003560e01c806312065fe01461003b57806370a0823114610059575b600080fd5b6100436100b1565b6040518082815260200191505060405180910390f35b61009b6004803603602081101561006f57600080fd5b81019080803573ffffffffffffffffffffffffffffffffffffffff1690602001909291905050506100f7565b6040518082815260200191505060405180910390f35b60008060003373ffffffffffffffffffffffffffffffffffffffff1673ffffffffffffffffffffffffffffffffffffffff16815260200190815260200160002054905090565b6000602052806000526040600020600091509050548156fea265627a7a72315820fef8bfa569a9fc370b0b9dc8d7807be409a03dc88c35423698cabf62d832f35e64736f6c63430005100032",
  "source": "pragma solidity >=0.4.22 <0.9.0;\n\ncontract Si3mShadyCoin {\n    //store all the balances of wallets which have the token\n    mapping(address => uint256) public balanceOf;\n\n    constructor() public {\n        balanceOf[msg.sender] = 888;\n        bytes32 Symbol = \"SSC\";\n        bytes32 Name = \"Si3MSHADY\";\n\n        // this constructor will provide the creator of the contract\n        // all initial tokens when smart contract is deployed.\n    }\n\n    function getBalance() public returns (uint256) {\n        return balanceOf[msg.sender];\n    }\n}\n",
  "sourcePath": "/Users/ellarnol/deploySC/contracts/ElliottsCoin.sol",
  "compiler": {
    "name": "solc",
    "version": "0.5.16+commit.9c3226ce.Emscripten.clang"
  },
  "schemaVersion": "3.3.4",
  "updatedAt": "2021-04-09T04:19:37.799Z",
  "devdoc": {
    "methods": {}
  },
  "userdoc": {
    "methods": {}
  }
}